{
    "_format": "hh-sol-artifact-1",
    "contractName": "FileUpload",
    "sourceName": "contracts/FileUpload.sol",
    "abi": [
        {
            "inputs": [],
            "name": "getDocHash",
            "outputs": [
                {
                    "components": [
                        {
                            "internalType": "string",
                            "name": "documentSignature",
                            "type": "string"
                        },
                        {
                            "internalType": "string",
                            "name": "universityPublicKey",
                            "type": "string"
                        }
                    ],
                    "internalType": "struct FileUpload.signAddress",
                    "name": "",
                    "type": "tuple"
                }
            ],
            "stateMutability": "view",
            "type": "function"
        },
        {
            "inputs": [
                {
                    "internalType": "string",
                    "name": "_documentSignature",
                    "type": "string"
                },
                {
                    "internalType": "string",
                    "name": "_universityPublicKey",
                    "type": "string"
                }
            ],
            "name": "setDocHash",
            "outputs": [],
            "stateMutability": "nonpayable",
            "type": "function"
        }
    ],
    "bytecode": "0x608060405234801561001057600080fd5b506107ba806100206000396000f3fe608060405234801561001057600080fd5b50600436106100365760003560e01c806352c399421461003b57806370d3762914610059575b600080fd5b610043610075565b60405161005091906105cb565b60405180910390f35b610073600480360381019061006e9190610472565b6101b3565b005b61007d61034d565b600060405180604001604052908160008201805461009a906106b2565b80601f01602080910402602001604051908101604052809291908181526020018280546100c6906106b2565b80156101135780601f106100e857610100808354040283529160200191610113565b820191906000526020600020905b8154815290600101906020018083116100f657829003601f168201915b5050505050815260200160018201805461012c906106b2565b80601f0160208091040260200160405190810160405280929190818152602001828054610158906106b2565b80156101a55780601f1061017a576101008083540402835291602001916101a5565b820191906000526020600020905b81548152906001019060200180831161018857829003601f168201915b505050505081525050905090565b6040518060400160405280838152602001828152506000808201518160000190805190602001906101e5929190610367565b506020820151816001019080519060200190610202929190610367565b509050506102456040518060400160405280601381526020017f6e6577207369676e41646472657373206973200000000000000000000000000081525083610288565b6102846040518060400160405280601481526020017f6e657720756e697620416464726573732069732000000000000000000000000081525082610288565b5050565b610320828260405160240161029e929190610594565b6040516020818303038152906040527f4b5c4277000000000000000000000000000000000000000000000000000000007bffffffffffffffffffffffffffffffffffffffffffffffffffffffff19166020820180517bffffffffffffffffffffffffffffffffffffffffffffffffffffffff8381831617835250505050610324565b5050565b60008151905060006a636f6e736f6c652e6c6f679050602083016000808483855afa5050505050565b604051806040016040528060608152602001606081525090565b828054610373906106b2565b90600052602060002090601f01602090048101928261039557600085556103dc565b82601f106103ae57805160ff19168380011785556103dc565b828001600101855582156103dc579182015b828111156103db5782518255916020019190600101906103c0565b5b5090506103e991906103ed565b5090565b5b808211156104065760008160009055506001016103ee565b5090565b600061041d61041884610612565b6105ed565b90508281526020810184848401111561043557600080fd5b610440848285610670565b509392505050565b600082601f83011261045957600080fd5b813561046984826020860161040a565b91505092915050565b6000806040838503121561048557600080fd5b600083013567ffffffffffffffff81111561049f57600080fd5b6104ab85828601610448565b925050602083013567ffffffffffffffff8111156104c857600080fd5b6104d485828601610448565b9150509250929050565b60006104e982610643565b6104f3818561064e565b935061050381856020860161067f565b61050c81610773565b840191505092915050565b600061052282610643565b61052c818561065f565b935061053c81856020860161067f565b61054581610773565b840191505092915050565b6000604083016000830151848203600086015261056d82826104de565b9150506020830151848203602086015261058782826104de565b9150508091505092915050565b600060408201905081810360008301526105ae8185610517565b905081810360208301526105c28184610517565b90509392505050565b600060208201905081810360008301526105e58184610550565b905092915050565b60006105f7610608565b905061060382826106e4565b919050565b6000604051905090565b600067ffffffffffffffff82111561062d5761062c610744565b5b61063682610773565b9050602081019050919050565b600081519050919050565b600082825260208201905092915050565b600082825260208201905092915050565b82818337600083830152505050565b60005b8381101561069d578082015181840152602081019050610682565b838111156106ac576000848401525b50505050565b600060028204905060018216806106ca57607f821691505b602082108114156106de576106dd610715565b5b50919050565b6106ed82610773565b810181811067ffffffffffffffff8211171561070c5761070b610744565b5b80604052505050565b7f4e487b7100000000000000000000000000000000000000000000000000000000600052602260045260246000fd5b7f4e487b7100000000000000000000000000000000000000000000000000000000600052604160045260246000fd5b6000601f19601f830116905091905056fea26469706673582212208c28aca2c52cfbfb72ee183c9cfc02a7dff0dce1075c51bf83e68dd436b7181a64736f6c63430008040033",
    "linkReferences": {},
    "deployedLinkReferences": {}
}